:020000040001F9
:10800000402D002079DE010093DE010095DE0100A5
:108010000000000000000000000000000000000060
:1080200000000000000000000000000097DE0100DA
:10803000000000000000000099DE01009BDE01004E
:108040009DDE01009DDE010053C20100C3E8010076
:10805000CFE8010000000000318F010035890100E8
:108060009DDE010061AD0100A3AD01009DDE0100B8
:108070009DDE01009DDE01009DDE01009DDE010010
:1080800089B60100C38C01009DDE01009DDE010068
:108090009DDE01009DDE0100F7FD01009DDE010077
:1080A0009DDE01009DDE01000000000000000000D8
:1080B00000000000000000000000000000000000C0
:1080C00000F002F800F030F80CA030C8083824188E
:1080D0002D18A246671EAB4654465D46AC4201D100
:1080E00000F022F87E460F3E0FCCB6460126334202
:1080F00000D0FB1AA246AB4633431847508300001A
:10810000708300000023002400250026103A01D3CC
:1081100078C1FBD8520700D330C100D50B6070473F
:108120001FB51FBD10B510BD08F038F81146FFF798
:10813000F7FF00F087FB08F050F803B4FFF7F2FFF9
:1081400003BC08F055F80000401E00BF00BF00BF90
:1081500000BF00BF00BF00BF00BF00BF00BF00BF27
:1081600000BFF1D170470000401E00BF00BF00BF3C
:1081700000BF00BF00BF00BF00BF00BF00BF00BF07
:1081800000BFF1D170470000401E00BF00BF00BF1C
:1081900000BF00BF00BF00BF00BF00BF00BF00BFE7
:1081A00000BFF1D17047000070B505460C46164679
:1081B00002E00FCC0FC5103E102EFAD2082E02D3CB
:1081C00003CC03C5083E042E07D301CC01C5361FDE
:1081D00003E021782970641C6D1C761EF9D270BDF5
:1081E00070B505460C46102C00DD10242246F849D7
:1081F000284607F075FE70BD70B58EB00546F5488F
:10820000056000BF08A8007D01090901491C0D9106
:1082100008A8007DF021884310300D9000BFED4884
:10822000006807F03BFE86B23246EA4801680DA8B6
:108230007CDF044600BF2646002E04D000BF304637
:1082400007F019FC00BF00BF302101A807F0B0FE05
:1082500004216846C171022101710121818281706E
:10826000DD49018069460691002101A803F0E2FE84
:10827000044600BF2646002E04D000BF304607F05B
:10828000FAFB00BF00BF0EB070BD642005F028FFF0
:1082900000BF00BF00BF00BF00BFBFF34F8F00BFD4
:1082A00000BF00BFCD48CE49C86000BF00BF00BFBF
:1082B000BFF34F8F00BF00BF00BF00BF00BFFDE78F
:1082C00004460D462A462146C648FFF7DEFF7CB528
:1082D000002078DF044600BF2546002D04D000BFF3
:1082E000284607F0C8FB00BF00BF002000900190A7
:1082F0001821684601803021418000218180FF21C2
:108300009131C1807ADF044600BF2546002D04D09C
:1083100000BF284607F0AFFB00BF00BF7CBD10B513
:108320001821B14807F044FE0020AF4908704860AA
:108330000872C82008820020488210BD70B505462A
:108340000C462068007880280CDAA84800680028CD
:108350000ED02668B21C71783078A44E3668B369A6
:10836000984705E023689A1C5978187801F042FC78
:1083700070BD38B5002000909D48009069469D482A
:1083800001F099F8044600BF2546002D04D000BF37
:10839000284607F070FB00BF00BF38BDF8B50646A1
:1083A0000F46144600BF2546002D04D000BF2846C6
:1083B00007F061FB00BF00BF0020F8BD7FB506F0ED
:1083C00085FF044600BF2546002D04D000BF284687
:1083D00007F051FB00BF00BF0020039003A804F08A
:1083E000D9FB044600BF2546002D04D000BF284617
:1083F00007F041FB00BF00BF052101A8013007F0D5
:10840000D5FD6846407941084900491C68464171DC
:1084100040790221884301466846417140791C2118
:10842000884301460C3168464171407920218843D8
:10843000014668464171072181711021C1716E4862
:10844000009001216846017169466C4804F015FCF2
:10845000044600BF2546002D04D000BF284607F083
:108460000AFB00BF00BF7FBD70B58CB005460C464F
:10847000164610226249684607F032FD102C00DDD6
:1084800010242246294604A807F02AFD68464DDF3D
:10849000102208A9304607F023FD0CB070BD38B596
:1084A000684607F00DFA044600BF2546002D04D0AB
:1084B00000BF284607F0DFFA00BF00BF0098002881
:1084C00003D001204F49087038BD3CDF044600BF8F
:1084D0002546002D04D000BF284607F0CCFA00BF87
:1084E00000BF00BFF0E710B50446022C02D0032CF9
:1084F0000BD100E000BF43480078002804D00020E2
:1085000040490870FFF7CBFF00E000BF00BF10BD7F
:1085100010B50446204606F0B8FE2046FFF7E3FFFC
:1085200010BD70B5304873DF044600BF2546002DEE
:1085300004D000BF284607F09EFA00BF00BF70BD00
:1085400070B504462088102804D011280ED01928B0
:108550002ED12CE0A0882C490880244800680028EF
:1085600003D0224909680869804722E0A5790020E4
:10857000C04325490880082D09D11C4800680028FF
:108580000ED01A48006841690120884708E0174862
:108590000068002804D01548006841690020884719
:1085A00012480068002801D1FFF7BBFF01E000E09E
:1085B00000BF00BF70BD10B50446204604F0D3FFD5
:1085C00021460C4800F0A0FD2046FFF7B9FF10BD82
:1085D000701C0020181B002090FE00000400FA050B
:1085E00000ED00E0EFBEADDE581C0020501B002067
:1085F0003D8301002C1C00209D830100111B0020E5
:1086000070020200101B0020121B0020F0B585B084
:10861000B448006880300068B349884216D100BF72
:10862000B04909688031002348224868AF4907F003
:108630009AFB074600BF0097009F002F04D000BFA1
:10864000009807F018FA00BF00BF12E000BF002337
:108650004822A749132007F086FB009000BF009F27
:10866000002F04D000BF384607F005FA00BF00BF56
:1086700000BF00200190029069460871012040026D
:10868000029001A860DF044600BF2746002F04D0F7
:1086900000BF384607F0EFF900BF00BF954807F06C
:1086A00098FB044600BF2746002F04D000BF384681
:1086B00007F0E1F900BF00BF8F4807F093FB0446C5
:1086C00000BF2746002F04D000BF384607F0D3F97B
:1086D00000BF00BF894871DF894A06218748401CD6
:1086E000FFF7C2FE01208549087086A0039000268E
:1086F000002504E00398405D8019C6B26D1C082D6A
:10870000F8D37E48407880197C494870002070DF9B
:1087100000BF6846007C01090901491C04916846B4
:10872000007CF02188431030049000BF7848006836
:1087300007F0B4FB87B23A467548016804A87CDFAD
:10874000044600BF2746002F04D000BF384607F07C
:1087500092F900BF00BF05B0F0BD1CB504466749E3
:1087600003C901910090684640780019C1B268467B
:1087700041706946002070DF1CBD70B574DF04468F
:1087800000BF2546002D04D000BF284607F073F92E
:1087900000BF00BF70BD5F490882704770B55E487A
:1087A00000885E4988420ED013215B48008876DF3E
:1087B000044600BF2546002D04D000BF284607F020
:1087C0005AF900BF0BE074DF044600BF2546002DB8
:1087D00004D000BF284607F04EF900BF00BF70BDAF
:1087E0004D4800884D49884201D001207047002043
:1087F000FCE770B548480088484988420ED01321EC
:108800004548008876DF044600BF2546002D04D089
:1088100000BF284607F02FF900BF00BF70BD70B53C
:108820000646304677DF044600BF2546002D04D0BB
:1088300000BF284607F01FF900BF00BF70BD70479A
:108840007047704701F074F800F0ADFAFFF7DEFEF4
:10885000FFF7B4FD00F0C8FBFFF739FDFFF75FFD40
:10886000FFF787FD00F022F903F09AF802F0F0F923
:108870002B48006800280DD0002002F072FF02F0A3
:108880008CF927480068002811D0254909684868F4
:1088900080470CE0012002F064FF22A0FFF7ACFC4F
:1088A00001F0E0FEC820FFF776FFFFF73AFE00BFB9
:1088B00002F0CAFE1E480078002803D0002001F014
:1088C000C2FF01E000F0D2F902F047F848DF0446A9
:1088D00000BF2546002D04D000BF284607F0CBF886
:1088E00000BFE5E7141B0020A55AA55A801C0020F4
:1088F000C81C0020B7850100118501001C1B002049
:10890000701C002030313A35323A3030000000001F
:10891000181B0020581C0020121B0020FFFF000025
:10892000501B00204F5441204D6F64650000000033
:10893000901B002010B557480068002811D0002077
:108940005449086054488468012054494860544997
:108950000C805448006800F0F7F800205149086086
:1089600000BF10BD70B5072032DF044600BF2546AA
:10897000002D04D000BF284607F07DF800BF00BFDF
:108980000321072033DF044600BF2546002D04D015
:1089900000BF284607F06FF800BF00BF07202EDF9A
:1089A000044600BF2546002D04D000BF284607F02E
:1089B00062F800BF00BF0020364908600120374937
:1089C000086070BD10B5044636480068002800D025
:1089D00010BD3448046001203349486018202E49F6
:1089E000486000202B49086001202B490860FFF7F0
:1089F000B9FF00BFECE7F7B506460F462948006807
:108A0000002800D0FEBD274902980860052E1CD022
:108A100008DC012E11D0022E11D0032E11D0042E0D
:108A200017D110E0062E12D01A2E02D01B2E10D114
:108A300001E001240DE002240BE0042409E00824F5
:108A400007E0102405E0202403E0402401E0802416
:108A500000BF00BF082F02D0092F04D101E000257C
:108A600003E0012501E0022500BF00BF01200E49FF
:108A70004860284608210843210208430649486007
:108A8000002004490860012003490860FFF76AFFDD
:108A900000BFB7E700710040007500400070004063
:108AA000281B0020241B00200073004010B5002468
:108AB00007E0601C0001A54940182101A34A50505D
:108AC000641C1F2CF5DB0021A14801679F48A149C8
:108AD0000860FF30F13048601F209F4988600821FE
:108AE000112000F0FCF8012000049C4948609B49DB
:108AF000403948601120002805DBC206D20E012152
:108B00009140974A116000BF1120002805DBC20682
:108B1000D20E01219140934A116000BF0120924979
:108B2000086010BD8B48006800280BD08948016898
:108B3000884A0868106010460068002800D150601C
:108B4000084670470020FCE7F8B506460F46874DFB
:108B5000FFF7E8FF0446002C0DD06660A7600020F8
:108B6000E06020606868002803D0686804606C607A
:108B700001E06C602C60F8BD77484068704710B524
:108B80007B4B1B68002B12D0FFF7F6FF784B1B685E
:108B9000D968C31CCB1A1B021B0A764CA34201D214
:108BA0000A4600E0C21C6C4B40331A6005E0FFF738
:108BB000E3FF431E684C4034236010BDF7B5074601
:108BC0006B4EFFF7AFFF0446002C32D06760019870
:108BD000A0600298E0603568002D07D0E868E16881
:108BE000401A0002000A6349884207D230682060B8
:108BF0003460706800281AD1746018E014E02868A6
:108C0000002808D02868C068E168401A0002000AFD
:108C10005849884207D2286820602C607068A842B2
:108C200000D1746002E02D68002DE8D100BFFFF78D
:108C3000A6FFFEBD70B504460E4625682068006894
:108C400020602068002800D160606968A8688847B3
:108C500040484068002805D03E48406805603D48CF
:108C6000456002E03B484560056070BD70B5404C12
:108C700000BF002615E02068002800D112E0FFF7B1
:108C80007BFF05462068C068281A0002000A39499F
:108C9000884205D229462046FFF7CCFF012600E096
:108CA00000E0E8E700BF314C2068002804D0002134
:108CB0002046FFF7BFFF0126002EDAD1FFF75FFF46
:108CC00070BD00202C49086000212B484160816064
:108CD000C16000202849403908604860704710B5DD
:108CE000002819DB1F4A03231B02D21883089B00AC
:108CF000D2588307DC0EFF23A3409A438B071B0E39
:108D00008407E40EA3401A43164B032424021B19C4
:108D10008408A4001A5118E0184A03071B0F083BE7
:108D20009B089B00D2588307DC0EFF23A3409A4385
:108D30008B071B0E8407E40EA3401A430F4B040756
:108D4000240F083CA408A4001A5110BD101D0020D7
:108D5000901E00202C1B00200015014040130140F4
:108D600080E200E000E100E0001001403C1B002038
:108D7000341B0020FFFF7F00401101401CED00E08C
:108D8000F0B5059C55000D439E0035432602354342
:108D9000069E360435430526360707273F02F61997
:108DA0008700F551F0BD10B50020C04387498860A9
:108DB0000620002805DBC206D20E01219140844A1C
:108DC000116000BF0321062000F0BCF80620002837
:108DD00005DBC206D20E012191407E4A116000BF20
:108DE00010BD7CB504460D46012D06D0022D10D0D5
:108DF000032D13D0042D1BD115E000BF00200090DF
:108E000003460122114601902046FFF7B9FF00BF3B
:108E10000EE00021204600F0CCF809E003212046B6
:108E200000F0C7F804E00121204600F0C2F800BFBE
:108E300000BF7CBD30B5024610460B46002B06D164
:108E400000BF01248440644DEC6000BF06E000BF19
:108E500001248440604DAC6000BF00BF00BF30BD46
:108E6000014600BF5C480069C840C007C00F70479A
:108E700030B50A460023594CE3636306534C6360E4
:108E8000002A01D0990B01E00321090405231B07E7
:108E9000072424021B1984001B5903242404A34320
:108EA0000524240707252D02641985006351052335
:108EB0001B07072424021B1984001B590B4305249C
:108EC000240707252D0264198500635130BD052153
:108ED0000907072212028918820089580322120406
:108EE00091430522120707231B02D2188300D15099
:108EF00005210907072212028918820089580522D4
:108F0000120707231B02D2188300D1500121C90781
:108F10002E4A9160704770B5044625463048006877
:108F2000002804D02E48006881682846884770BD14
:108F300010B5294804692046FFF7EDFF00202749B6
:108F4000C86310BD10B5002819DB224A03231B0299
:108F5000D21883089B00D2588307DC0EFF23A3405E
:108F60009A438B071B0E8407E40EA3401A43194B48
:108F7000032424021B198408A4001A5118E0194A7A
:108F800003071B0F083B9B089B00D2588307DC0E8E
:108F9000FF23A3409A438B071B0E8407E40EA340D4
:108FA0001A43104B0407240F083CA408A4001A51CC
:108FB00010BD7CB505460C460020009023460246B5
:108FC000014601902846FFF7DBFE7CBD00630040B0
:108FD00080E200E000E100E0000500504061004058
:108FE000501B00201CED00E01FB5044B0FCB6C465E
:108FF0000FC40349684663DF1FBD00008002020002
:10900000441B00208A88C2840022FE4B1A807047CD
:109010000022D243C2847047F8B505460C46264666
:109020001A36208B002826DD2868002823D0208BC4
:10903000022800DAF8BDF4484078801CC82800DD1A
:10904000F8E70020EF490880228B3146EE4806F011
:1090500047FF208BEB4909884018EA49088070785F
:10906000801C218B884205D1E7480090694628463C
:109070002A68904700BF00BFDCE7F8B505460C46FC
:1090800026461A36208B002826DD2868002823D0A3
:10909000208BDC4909884118DB484078801C8142DC
:1090A00019DC228BD849D74B1B88C818314606F0EB
:1090B00017FF208BD34909884018D2490880D2482D
:1090C0004078801C0988884205D1CF4800906946C5
:1090D00028462A68904700BFF8BD70B504460E4682
:1090E000B51D2888E188884204D129462046FFF72B
:1090F00093FF07E02888E18A884203D12946204669
:10910000FFF7BBFF70BD704770B505460C46208861
:10911000012815D0102804D0112807D0502814D1C8
:1091200009E021462846FFF76DFF0FE0214628465B
:10913000FFF76EFF0AE021462846FFF7CEFF05E065
:1091400021462846FFF7DFFF00E000BF00BF70BDEB
:1091500030B58FB004460D461C2108A806F028FF44
:1091600008A8007808218843411808A80170002049
:1091700009900B900C900D900E90A44801786846D1
:109180008172A34901810020019000BF68460079E7
:1091900001090901684601710079F0218843694697
:1091A000087100BF00BF6846407901090901491CE8
:1091B000684641714079F021884310306946487112
:1091C00000BF6846807906218843811C684681710A
:1091D0008079082188430146684681718079102191
:1091E0008843014668468171807941084900491CDD
:1091F00068468171142103A806F0DAFE02A80390E4
:1092000001A80490002168468182C1821721018350
:1092100000200790A088A31D03AA08A9A2DF0FB011
:1092200030BD30B58FB004460D461C2108A806F0AD
:10923000BFFE08A8007804218843011D08A801701A
:10924000002009900B900C900D900E906F480178C3
:10925000684681726E49891C01810020019000BF1F
:109260006846007901090901684601710079F02119
:1092700088436946087100BF00BF6846407901090C
:109280000901491C684641714079F021884310303A
:109290006946487100BF6846807906218843811C71
:1092A000684681718079082188430146684681714A
:1092B0008079102188430146684681718079410890
:1092C0004900491C68468171142103A806F070FE0C
:1092D00002A8039001A80490002168468182C182FF
:1092E0001721018300200790A0882346163303AA84
:1092F00008A9A2DF0FB030BD30B58FB004460D46CF
:109300001C2108A806F054FE08A800781021884304
:10931000411808A80170002009900B900C900D9046
:109320000E903A480178684681723949491C01819A
:109330000020019000BF6846007901090901491C1D
:10934000684601710079F021884310306946087140
:1093500000BF00BF684640790109090168464171B4
:109360004079F02188436946487100BF684680799A
:1093700006218843811C68468171807908218843D1
:10938000014668468171807910218843014668460C
:109390008171807941084900491C68468171142116
:1093A00003A806F005FE02A8039001A8049000217E
:1093B00068468182C1821721018300200790A0881E
:1093C00023460E3303AA08A9A2DF0FB030BD30B583
:1093D0008FB004460D461C2108A806F0E9FD08A838
:1093E000007810218843411808A8017000200990D6
:1093F0000B900C900D900E90044801786846817295
:10940000034907E0461B0020101F0020441B0020DA
:1094100001800000C91C01810020019000BF684646
:10942000007901090901491C684601710079F021A0
:10943000884310306946087100BF00BF6846407914
:1094400001090901684641714079F0218843694664
:10945000487100BF6846807906218843811C6846B0
:10946000817180790821884301466846817180793D
:10947000102188430146684681718079410849007E
:10948000491C68468171142103A806F091FD02A8C9
:10949000039001A80490002168468182C1821721AF
:1094A000018300200790A08823461E3303AA08A941
:1094B000A2DF0FB030BDF8B505460E460121C90345
:1094C00068460180444801786846817030682860A9
:1094D0000020C043E8842A1D69460120A0DF04461D
:1094E000002C01D02046F8BD31462846FFF730FE5B
:1094F0000446002C01D02046F5E731462846FFF708
:1095000090FE0446002C01D02046ECE73146284668
:10951000FFF7F2FE0446002C01D02046E3E7314677
:109520002846FFF754FF0446002C01D02046DAE716
:109530000020D8E7F0B585B004460F461646E08C0B
:10954000264988421BD0049600200090019002908A
:109550000390E189684601800121817000218180AA
:1095600004A802900397E08C6946A6DF0546002D0B
:1095700004D16846008AB04200D00C2500E00825DE
:10958000284605B0F0BDF0B585B004460F46164636
:10959000E08C124988421BD0049600200090019074
:1095A00002900390E18B68460180012181700021C7
:1095B000818004A802900397E08C6946A6DF0546E7
:1095C000002D04D16846008AB04200D00C2500E08E
:1095D0000825284605B0F0BD441B0020FFFF000011
:1095E000F8B501210A4600231F46009354000C439E
:1095F0009D002C433D022C43009D2D042C4305254A
:109600002D0707263602AD198600AC5100BFF8BD04
:10961000F0B5B04C51252D01641985006459AE4D4B
:109620002C40AC4D51263601AD198600AC51A94CE9
:1096300051252D016419850065590C021F2636023B
:109640003440160403273F043E4034431E050127DF
:109650003F053E40344325439E4C51263601A41914
:109660008600A551F0BD70B50646354600219B48E1
:10967000C160816041600160002476E0204600F016
:109680001AF9691C085DFFF7ABFF281D005D002873
:109690000CD1934AD279D207D20F01235A401146F6
:1096A0008F4A521C105D00F0F9F85CE0281D005D47
:1096B000FF2809D18A4AD279D107C90F884A521C9A
:1096C000105D00F0EBF84EE0281D005D8549152285
:1096D00092018918A2008850691C085DFFF780FF7D
:1096E000E879C007C00F00280BD0691C085D00F0A6
:1096F000CBF8681C015D012302222046FFF788FF9A
:109700000AE0691C085D00F0C4F8681C015D0023D4
:1097100001222046FFF77CFF00BFA100724A891892
:1097200009690322114308461F2109020143694ABE
:1097300051231B01D218A300D15000BF00BF00BFAE
:109740006449512212018918A200885000BF634861
:10975000A300C118A0005F4BC218204623DF0121DF
:10976000A140084621DF601CC4B2032C86DB70BD1B
:1097700070B504460D46032221465948401C06F0A8
:10978000AFFB5749CD710020087070BD10B553482C
:10979000C068002810D000215048C16050480078AF
:1097A000002809D001204F494860C8604C48FFF7A5
:1097B0005AFF01204B49086010BD10B54B4801F01D
:1097C000F9FA040001D0204610BD01204449087078
:1097D0004749C863072047490861002088604860FE
:1097E000FF204049152292018918C86003210A20F0
:1097F00033DF0A202EDF0120C0043F49486038488B
:10980000FFF731FF0120374908600020DCE710B581
:1098100000203349087001203249C86048600020A8
:109820003349C863002414E0204600F044F82C4972
:10983000491C085DFFF7D4FE294AD279D207D20F1E
:1098400001235A401146264A521C105D00F026F8AA
:10985000641C032CE8DB01F0C0FA10BD10B504460F
:10986000032221461E48001D06F03AFB1C480078E2
:10987000012808D11B494860C8601948FFF7F3FE6A
:1098800001201849086010BD012181401B4A9160E8
:10989000704701218140194AD160704770B5054673
:1098A0000C46002C03D12846FFF7F3FF02E02846C0
:1098B000FFF7EAFF70BD07495122120189188200A3
:1098C000895889088900034A51231B01D218830053
:1098D000D150704700600040FFE0ECFF40A1004025
:1098E000481B002000A00040006500408D9701004B
:1098F000C0AF004000A5004000A30040000500509C
:1099000070B586B005460C461646122C00D91224B6
:1099100068460571447122463146801D06F0E0FA22
:10992000A01CC2B201A91348FFF704FE06B070BD27
:1099300010B5114811490860084600680068002108
:10994000C943884203D100200C49086004E00B4859
:10995000006801680A48884710BD38B5684652DF7C
:109960000098C117890F091889100C460A3C60B28B
:1099700038BD00002C1C002000090200501B0020F4
:10998000A0020200F8B501210A4600231F460093F9
:1099900054000C439D002C433D022C43009D2D049C
:1099A0002C4305252D0707263602AD198600AC513C
:1099B00000BFF8BD70B505462C46207BFFF7E2FFDF
:1099C000207B0121002906D100BF012282407C4B6F
:1099D000DA6000BF06E000BF01228240784B9A6047
:1099E00000BF00BF00BF0220764951221201891832
:1099F0008200895889088900724A51231B01D218B4
:109A00008300D15000BF01206F49C86000206F491A
:109A1000C8636168A068884209D2FFF7ADF80646BE
:109A20003236324629466A48FFF7C8F815E0607BAF
:109A3000401C6073607B03280CDA00206549886055
:109A4000FFF79AF864494618324662496048FFF7C2
:109A5000B5F802E000205F49887370BDFEB504468A
:109A60002546AA689200286881580120C00306F0A4
:109A7000E5FA029001205449C8605449C86309209E
:109A800056490861287BFFF77DFF00205349886015
:109A900002988008514940310860029840084A49BC
:109AA000152292018918486000204C494860022024
:109AB0004B49086000214A48C03841600160414A72
:109AC00008320146002023DF012021DF02202A7B0B
:109AD00003210123019300923A4A51231B01D2181A
:109AE0008300D2583F4B1A40364B512636019B1902
:109AF00086009A51334A51231B01D2188300D6584D
:109B0000009A12021F231B021A400B040F043B4051
:109B10001A43019B1B05C7043B401A431643294ABD
:109B200051231B01D2188300D65000BF00BF820012
:109B30002D4BD218126903231A4311461F22120219
:109B40000A43204B512636019B1986009A5100BFCB
:109B500000BF00BF1B4A51231B01D2188300D15004
:109B600000BF012018490860A868401CA860FFF7E2
:109B700003F80646C836324621461C48FFF71EF851
:109B8000FEBD70B5044613480473194811490860B6
:109B9000042048600020886048730846807BC00726
:109BA000C00F00280AD101208873FEF7E5FF0546A3
:109BB00032352A4607490648FFF700F870BD000015
:109BC000000500500060004000A00040C0AF004011
:109BD0005D9A0100D81F0020DC05000000A50040B0
:109BE00000A20040FFE0ECFF00650040B5990100D5
:109BF0009002020070B504460D4616462046803895
:109C0000030006F027FB05040A10161C220032464A
:109C10002946204601F08EF817E0324629462046B4
:109C200000F050FD11E032462946204600F0F9FDD3
:109C30000BE032462946204601F086FD05E032461B
:109C40002946204601F0B1FD00BF00BF70BD0000F5
:109C5000484908607047FFB585B01646454800681A
:109C6000C079B04204DC43480068007AB04204DAAC
:109C700040480068007909B0F0BD3E49096888791C
:109C8000C117490F0918C910C900411A002908DD78
:109C9000384909688879C117490F0918C9104C1C3F
:109CA00006E0344909688879C117490F0918CC10B2
:109CB0003048006840796043401CC0B203902D4892
:109CC000006802682B480068C079311A0398414344
:109CD000501802900298007804900298401C02905C
:109CE00000252BE00020019023E0284660430299E4
:109CF00041180198085C0090002714E00120B8404A
:109D00000099084000280CD00198C200069810184D
:109D1000C01981B20598401983B21846089A00F01C
:109D20002BF8781CC7B2082FE8DB0198401CC0B2A2
:109D300001900198A042D8DB681CC5B20498854206
:109D4000D0DB049897E7FFB581B005460F4614466F
:109D50000AE0227839462846049BFFF77CFFC6B20A
:109D6000701C281885B2641C20780028F1D105B039
:109D7000F0BD0000641B0020F7B582B004460E461B
:109D8000FE480088401EA04204DBFD480088401EBB
:109D9000B04201DA05B0F0BDF849098871430819ED
:109DA000C117490F091849030D0C2046E117490F47
:109DB0000918C910C900611A0722521A01219140DD
:109DC000CFB20498022807D1EE480068405D784081
:109DD000EC49096848551BE00498002801D101208E
:109DE00000E00020E8490978C907C90F4840002869
:109DF00007D0E4480068405DB843E2490968485527
:109E000006E0E0480068405D3843DE49096848558F
:109E1000F3B2E2B2F1B2E0B2019000F045FA00BF55
:109E2000B8E7F0B587B004460D4616461F46791BC5
:109E3000002901DB0A4600E04A42301B002801DB12
:109E4000034600E043429A4201DD012200E0002285
:109E500006920698002806D0E0B22C460546F0B2DD
:109E60003E46074600BFB44206DDE0B23446064631
:109E7000E8B23D46074600BFFBB2F2B2E9B2E0B23B
:109E8000019000F011FA301BC0B20590781B002839
:109E900001DB014600E04142C9B204910598C10FBF
:109EA0000918491049B20391BD4202DA012002901B
:109EB00002E00020C04302901FE00698002805D071
:109EC000214628460C9AFFF757FF04E02946204612
:109ED0000C9AFFF751FF04990398401A40B203907F
:109EE0000398002807DA0298281885B20599039884
:109EF000401840B20390601C84B2B442DDDD07B06C
:109F0000F0BDFEB504460D4616461F4620B2019030
:109F100015E028B200900AE0009A91B2019A90B23E
:109F2000089AFFF729FF0098401C00B20090E91939
:109F300000988142F0DC0198401C00B20190A11908
:109F400001988142E5DCE819401EC3B2A019401E09
:109F5000C2B2E9B2E0B2009000F0A6F9FEBDFFB5D2
:109F600081B005460E4617462CB20EE0A0B231462F
:109F70000A9AFFF701FF049AB218521E91B2A0B2DA
:109F80000A9AFFF7F9FE601C04B2E819A042EDDC62
:109F900034B20DE0A1B228460A9AFFF7EDFEA1B255
:109FA000EA19521E90B20A9AFFF7E6FE601C04B24C
:109FB00004983018A042EDDC04983018401EC3B25B
:109FC000E819401EC2B2F1B2E8B2009000F06CF99C
:109FD00005B0F0BDFFB585B004460D46164601201C
:109FE000801B40B20490012003907000404240B2B8
:109FF0000290002770B20190A819C3B2A019C2B292
:10A00000A81BC1B2A01BC0B2009000F04DF9A81966
:10A0100081B22046089AFFF7AFFEA81B81B2204606
:10A02000089AFFF7A9FEA11988B22946089AFFF7F6
:10A03000A3FEA11B88B22946089AFFF79DFE5AE0AD
:10A04000049800280CDB0198401E40B20190029851
:10A05000801C40B2029002990498401840B20490CB
:10A06000781C47B20398801C40B20390039904986F
:10A07000401840B20490019AAA1891B2E21990B225
:10A08000089AFFF779FE019AAA1891B2E21B90B2E2
:10A09000089AFFF771FE019AAA1A91B2E21990B2DA
:10A0A000089AFFF769FE019AAA1A91B2E21B90B2D0
:10A0B000089AFFF761FEEA1991B2019AA21890B2CC
:10A0C000089AFFF759FEEA1991B2019AA21A90B2C2
:10A0D000089AFFF751FEEA1B91B2019AA21890B2BA
:10A0E000089AFFF749FEEA1B91B2019AA21A90B2B0
:10A0F000089AFFF741FE01988742A1DB09B0F0BD45
:10A10000FFB587B007460E4615460120401B40B2FA
:10A110000690012005906800404240B20490002063
:10A12000039068B202907019C3B27819C2B2701B62
:10A13000C1B2781BC0B2019000F0B6F8701B04B237
:10A1400006E0A1B238460A9AFFF716FE601C04B278
:10A150007019A042F5DA55E0069800280CDB029849
:10A16000401E40B202900498801C40B204900499B2
:10A170000698401840B20690039807E05C1B002048
:10A180005E1B0020541B0020601B0020401C40B2BE
:10A1900003900598801C40B20590059906984018D8
:10A1A00040B206900298301A04B20FE0A1B2039AAE
:10A1B000BA1890B20A9AFFF7DFFDA1B2039ABA1A51
:10A1C00090B20A9AFFF7D8FD601C04B202983018CA
:10A1D000A042EBDA0398301A04B20FE0A1B2029A5F
:10A1E000BA1890B20A9AFFF7C7FDA1B2029ABA1A3A
:10A1F00090B20A9AFFF7C0FD601C04B203983018B1
:10A20000A042EBDA029903988842A5DB0BB0F0BDBF
:10A21000FFB583B005460E4600242AE0002723E060
:10A22000069979430819C117490F09184903090C00
:10A2300002912046E117490F0918C910C900621A96
:10A2400001219140C9B2019102990598405C0199A0
:10A250000840002806D0F21991B22A1990B20D9A3E
:10A26000FFF78AFD781C07B20C988742D8DB601C88
:10A2700004B206988442D1DB0C9FF7197F1EFBB213
:10A28000069FEF197F1EFAB2F1B2E8B200F00CF8A7
:10A2900007B0F0BD10B53D4C20603D4C21803D4CD9
:10A2A00022803D4C237010BD10B5394C2488641EAB
:10A2B000844203DA364C2478641EE0B2344C24889D
:10A2C000641E944203DA324C2478641EE2B2314CAC
:10A2D0002488641E8C4203DA2E4C2478641EE1B27A
:10A2E0002C4C2488641E9C4203DA2A4C2478641E79
:10A2F000E3B22A4C2478844201DD284C2070274C9C
:10A30000A478944201DA254CA270244C64788C42E3
:10A3100001DD224C6170214CE4789C4201DA1F4C33
:10A32000E37010BD1A480078401E1C4908700020D8
:10A33000887018480078401E48700020C870704728
:10A3400010B515480078C007C00F00280ED010487F
:10A3500000881049098848430446C017400F001977
:10A36000C1100A48006805F021FE0EE00848008888
:10A370000849098848430446C017400F0019C11016
:10A38000FF220248006805F0ECFD10BD541B0020C0
:10A390005C1B00205E1B0020601B0020581B00205F
:10A3A0002C4A10602C4A1160704710B501202B49CF
:10A3B000486000F0F1FC10BD10B50020284908608D
:10A3C00025480068002801D1FFF7EFFF2548006805
:10A3D000002803D023490968C868804710BD70B5BC
:10A3E0000446214800F0C5FC050001D0284670BD98
:10A3F000184800681D49086101201849C8600020FC
:10A400001A498860194840300460002048600021E3
:10A410001348C1608160416001600321092033DF7E
:10A4200009202EDF0C480068002805D1FF200130EC
:10A430000B49C031086003E001200949C0310860C0
:10A44000012000040A4948600120044908600020F6
:10A45000CDE70000681B00206C1B0020009000402E
:10A4600040910040501B0020B9A30100009500401E
:10A470000093004000BF00BF00BFBFF34F8F00BF7D
:10A4800000BF00BFF648F749C86000BF00BF00BF6B
:10A49000BFF34F8F00BF00BF00BF00BF00BFFDE78D
:10A4A000FFF7E8FFF8B506465A2069460870002312
:10A4B0000422ED4805F03DFA044600BF2546002D74
:10A4C00004D000BF284605F0D6FA00BF00BFF8BD93
:10A4D00038B5E6480078022834D101244120C00272
:10A4E00006E00168491C002901D0002404E0001D99
:10A4F0000521C9038842F4D300BF002C0AD00420F0
:10A50000DA490870002000906A4601218120FFF797
:10A51000F7F916E0D6480078401CD549087008467F
:10A5200000780F2807DB032000906A460121812074
:10A53000FFF7E6F905E00F21C9024120C00200F053
:10A540009FFB0CE0C9480078052808D1FEF714FBF2
:10A550000446323422460021C648FEF72FFB38BDA0
:10A5600038B5C2480078042835D1C34909888A1E05
:10A57000C2494978C4235943C14BC818BF49891CF3
:10A5800005F05EFC002807D1022000906A460121F8
:10A590008120FFF7B5F948E0B5480078401CB44980
:10A5A0000870084600780F2807DB032000906A46F1
:10A5B00001218120FFF7A4F937E0B0484078C42199
:10A5C00048430346AC480088821EAC49891CAC480D
:10A5D00000F06BFB29E0A548007805281AD1A848AF
:10A5E0000068A849096888420BD1FEF702F9FEF716
:10A5F000C3FA04463234224600219E48FEF7DEFAB2
:10A6000013E0FEF7F6F80F21C9024120C00200F066
:10A6100037FB0AE0FEF7EDF8FEF7AEFA04463234F7
:10A62000224600219348FEF7C9FA38BDF8B50D4619
:10A630001446069F012D02D0032D06D102E0FFF73C
:10A640008FFF03E0FFF744FF00E000BF00BF00BF43
:10A650002646002E04D000BF304605F00CFA00BF9D
:10A6600000BFF8BD10B5012080490870864800F091
:10A6700056FB10BDF3B50C4600200021002200233C
:10A6800000BF0FE0009EB55CDE000F46B7403946C4
:10A690000E462E4331465B1C042B02D30023401888
:10A6A0000021521CA242EDD3FCBD70B505460E46FA
:10A6B000002404E0285D03F075FB601CC4B2B442C2
:10A6C000F8DB70BDFEB50D46144620780190674852
:10A6D000007800286FD00198002804D0012815D0F8
:10A6E000022812D14BE06148007801280DD10020EA
:10A6F000664908605E49087002205C4908700F21B5
:10A70000C9024120C00200F0BBFA7BE05748007844
:10A71000042833D105205549087000205449087099
:10A720005B480068011F5648001DFFF7A3FF06465F
:10A73000042158480068FFF79DFF861956480068B5
:10A74000401C002810D052480068401C00280BD044
:10A7500051480068864207D1002304224D48016811
:10A76000474800F0A2FAFEBDFEF706FA0746323768
:10A770003A4600213F48FEF721FA00BF42E03B483D
:10A78000007804283DD1002040490860384908700D
:10A790006078002810D1A01C00683F490860A01C08
:10A7A00040683B490860022000906A4601218120F0
:10A7B000FFF7A6F825E026E06078401E607060781C
:10A7C00000280DD100BF09E0811C615C314A12688C
:10A7D0001154FF22811C6254411CC8B20428F3DBCF
:10A7E00025480580FF2201322146244805F078FBE8
:10A7F0006078C42148430346AA1EA11C204800F0EB
:10A8000054FA00BF00BF00BFADE7F8B505460E46DD
:10A810001746069C21480078002801D0FFF72AFE41
:10A82000F8BD70B505460E46144600F097FF0028A7
:10A8300008D11BA1204605F0BDFB002802D1012054
:10A840001649087070BD10B50446184800F067FA44
:10A850000F21C9024120C00200F012FA10BD000011
:10A860000400FA0500ED00E0701B00207A1B0020B8
:10A87000781B0020A1A401007C1B0020E81F002001
:10A8800000090200801B00202DA60100501B0020A3
:10A890008C1B0020841B0020881B0020901B0020A4
:10A8A0004F54415F4D4F4445000000000BA801008C
:10A8B0000178002904D0032903D0042902D102E041
:10A8C00001E000E000BF00BF7047F7B58AB0054661
:10A8D0000E4668460577467700218177C17708A83C
:10A8E000017041700C98099000BF00200690244828
:10A8F000029080200390234804908020059006A8B1
:10A900000323214A02A9009007A801F010FD044684
:10A9100000BF00BF2746002F04D000BF384605F017
:10A92000AAF800BF00BF0DB0F0BDF3B581B0064678
:10A9300000250EE0705D01F09AFD044600BF274639
:10A94000002F04D000BF384605F095F800BF00BFC7
:10A950006D1C02988542EDD3FEBD08B509E00B4899
:10A960000068002805D009480068C1696846007879
:10A970008847684601F048FD0028F0D008BD000077
:10A98000E820002068210020B1A80100501B002011
:10A9900070B506460525ED03002400BF00E0641CE9
:10A9A0006001401980785A28F9D018209F49087012
:10A9B000620100230521C903A120800200F075F97E
:10A9C00070BDF0B5FFB082B001AEA127BF02002478
:10A9D00005E00020C043A10001AA5050641C802C57
:10A9E000F7D3E0241CE0651E6801C01980785A285E
:10A9F00015D16801385C400180198078FF280ED19C
:10AA00006801385C4001305CFF2808D16A01D11927
:10AA10006A01BA5C52019019202205F061FA641EA5
:10AA2000002CE0D1002500BF0EE060018019807885
:10AA30005A2808D1620191192A466D1C52019019B9
:10AA4000202205F04DFA641C102CEED31620774915
:10AA500008706A01002301A90520C00300F025F950
:10AA60007FB002B0F0BD70B50446254600206F49A6
:10AA700008702B4620226E49A120800200F015F9B3
:10AA800070BD10B50446152068490870012189027F
:10AA90000520C00300F0F4F810BD70B50546A124F0
:10AAA000A40200BF04E0A0785A2800D004E02034BB
:10AAB000152040038442F6D300BF15204003844292
:10AAC00004D300215B48FEF73FF809E00020574916
:10AAD0000870A1208002241A21465748FEF734F856
:10AAE00070BD10B504461920504908700020FFF7CA
:10AAF000D4FF10BD10B5044617204C49087007213B
:10AB00008902A120800200F0BBF810BD70B5044698
:10AB100025784A480068002804D048480068016A3F
:10AB20002846884770BDFFB581B0054616461F46CA
:10AB30000A9C6846007A012802D0032829D118E02F
:10AB40003A480078002804D102A93D48FDF7FCFFEF
:10AB50000EE036480078162803D10020FFF7CAFF20
:10AB600006E032480078182802D10020FFF7B9FF2C
:10AB700010E02E480078152803D10020FFF721FFB0
:10AB800006E02A480078172802D10020FFF700FFCE
:10AB900000E000BF00BF05B0F0BD10B5294800F0CF
:10ABA000BEF800202149087010BDF8B506460C46D5
:10ABB00017461F4D102E01DB0120F8BD1C2C01DBB8
:10ABC0000220FAE72E706C705A20A870002004E072
:10ABD0003A5C291D0A54411CC8B2A042F8DB01208E
:10ABE0001249087000211848FDF7AEFF0020E4E785
:10ABF000F8B506460D461746A124A402134C0FE0F3
:10AC0000A0785A280BD12078B04208D160782870FB
:10AC10002A78211D384605F063F90020F8BD203C54
:10AC20000520C0038442EBD20120F7E7911B0020EE
:10AC3000E821002083AA010067AA0100501B002020
:10AC40000DAB010027AB01009BAA0100E09F0200B1
:10AC50007CB5354903C90191009000203349086053
:10AC60003349684604F040FE044600BF2546002DE7
:10AC700004D000BF284604F0FEFE00BF00BF7CBD2C
:10AC8000F8B504460D462A484460A9B204F098FE7F
:10AC9000064600BF3746002F04D000BF384604F0F8
:10ACA000EAFE00BF00BF0020F8BDFFB581B004463A
:10ACB00015461F484460049883B2AAB21C48029902
:10ACC00004F037FE064600BF3746002F04D000BF11
:10ACD000384604F0D0FE00BF00BF002005B0F0BD34
:10ACE00070B504460D46164632462146284605F004
:10ACF000F7F8002070BDFFB581B004460D4616463A
:10AD00000A480068002808D00A9800903246294670
:10AD10002046064F049B3F68B84705B0F0BD01468A
:10AD20000248016000207047A00302009C1B002025
:10AD3000941B002070B5A0B006460C461546012CA9
:10AD40000BD12878002808D110216846FDF748FA71
:10AD50006A4610218020FEF7D3FD20B070BD0000B0
:10AD600010B520480068002802D01E4908688047B6
:10AD700010BD01461B480079012801D11A487047CF
:10AD8000002902D1481E194A90600120154A10710D
:10AD9000104601600020F2E70020124908600871A7
:10ADA000704710B512480068002802D010490868A2
:10ADB000804710BD01460E480079012801D10D4899
:10ADC0007047002902D1481E0B4A90600120084AB2
:10ADD0001071104601600020F2E70020044908606D
:10ADE00008717047A01B00200090004000930040B5
:10ADF000A81B002000A0004000A3004010B53A4866
:10AE00000068002802D038480068804710BD3649E5
:10AE10000860704710B5044634480078012801DD09
:10AE2000012010BD16222146314805F059F80120B5
:10AE30002E4908700020F4E710B52E48FFF799FF5F
:10AE4000040001D0204610BD0020FFF7B3FF04002E
:10AE500003D0FFF7A1FF2046F5E70020F3E770B528
:10AE600086B004460D4621480078012802DD012005
:10AE700006B070BD1D480078002801D10220F7E718
:10AE8000FFF7DAFF060001D03046F1E718480078F6
:10AE900000280FD11648428A69460A80808A488075
:10AEA00014221349891C01A805F01AF801A80FC83B
:10AEB00000F0BFFA02200D4908700F480078002802
:10AEC00003D12946204600F0CAFA0020D0E70748FF
:10AED0000078704710B5FFF75FFFFFF77EFF012096
:10AEE00002490870002010BDB41B0020B11B0020D7
:10AEF00020220020FDAD0100B21B0020F0B5059C12
:10AF000055000D439E00354326023543069E360408
:10AF100035430526360707273F02F6198700F55106
:10AF2000F0BD10B58200FE4BD218126903231A43FC
:10AF300011461F2212020A43FA4B512424011B1905
:10AF400084001A5100BF00BF00BFF64A51231B0105
:10AF5000D2188300D15010BDF0B5F24C51252D010F
:10AF6000641985006459F04D2C40EE4D5126360190
:10AF7000AD198600AC51EB4C51252D0164198500AB
:10AF800065590C021F2636023440160403273F047D
:10AF90003E4034431E0501273F053E4034432543D0
:10AFA000E04C51263601A4198600A551F0BD10B51C
:10AFB000DE49487800F0A4FA10BD10B5DB494878A6
:10AFC000002100F0A9FA10BD10B5D848417800233F
:10AFD00003220120FFF7C0FF0120FFF7A2FF10BDF1
:10AFE00070B5D04A121DD249002023DF044600BFAD
:10AFF0002546002D04D000BF284604F03CFD00BFCC
:10B0000000BF012021DF044600BF2546002D04D0EB
:10B0100000BF284604F02FFD00BF00BFC14A121D2B
:10B02000C349091D012023DF044600BF2546002D2A
:10B0300004D000BF284604F01EFD00BF00BF022060
:10B0400021DF044600BF2546002D04D000BF28465E
:10B0500004F011FD00BF00BF70BD10B5884209D3D8
:10B060009622B44B1A60D622B34B1524A4011B19A7
:10B070005A6007E00A1AAF4B1A60AF4A15239B01CA
:10B08000D21851600022AB4B403B5A6001221A613A
:10B0900003229A600222A64BC0331A6010BD70B51D
:10B0A00004460D46FFF789FFFFF78EFFFFF798FF75
:10B0B00029462046FFF7D1FF70BD10B5FFF777FF97
:10B0C000FFF782FF01209C49086010BD10B50120E8
:10B0D00099494860FFF778FFFFF76FFF10BD10B583
:10B0E00092480178002303220220FFF735FF022057
:10B0F000FFF717FF10BD70B58A4A08328F4902204A
:10B1000023DF044600BF2546002D04D000BF28469B
:10B1100004F0B1FC00BF00BF824A08328749091D14
:10B12000032023DF044600BF2546002D04D000BFC6
:10B13000284604F0A0FC00BF00BF7A4A08327F49CD
:10B140000831042023DF044600BF2546002D04D02B
:10B1500000BF284604F08FFC00BF00BF714A0832D0
:10B1600076490C31052023DF044600BF2546002D1B
:10B1700004D000BF284604F07EFC00BF00BF704A28
:10B180006B49091D062023DF044600BF2546002D1C
:10B1900004D000BF284604F06EFC00BF00BF0420AE
:10B1A00021DF044600BF2546002D04D000BF2846FD
:10B1B00004F061FC00BF00BF082021DF044600BF8F
:10B1C0002546002D04D000BF284604F054FC00BFE3
:10B1D00000BF102021DF044600BF2546002D04D00B
:10B1E00000BF284604F047FC00BF00BF202021DF3D
:10B1F000044600BF2546002D04D000BF284604F0B9
:10B200003AFC00BF00BF402021DF044600BF2546B6
:10B21000002D04D000BF284604F02DFC00BF00BF65
:10B2200070BD10B501204749486003208860001FA9
:10B23000454988600F20000448600920002805DB8C
:10B24000C206D20E01219140404A116000BF0A217E
:10B25000092000F01EF90920002805DBC206D20EE5
:10B26000012191403A4A116000BF10BD10B52F492D
:10B27000087800F045F910BD10B52C490878002178
:10B2800000F04AF910BD10B5FFF7F6FFFFF727FFF2
:10B29000FFF731FFFFF7C5FF10BD10B5FFF716FF31
:10B2A000FFF7EAFFFFF716FE002010BD70B5044659
:10B2B000002528480078A04206D1FFF7EEFF0520C0
:10B2C00024490870012070BD22480078052802D06A
:10B2D0000020C043F7E700F02CF90546002D0DD003
:10B2E0001D480088281885B215480838152189019D
:10B2F0004018A10045501848058037E00F48C0307D
:10B3000000682146083101228A4010430B49C031B0
:10B310000860104804700548408A0F4909881DE0FC
:10B320000065004000600040FFE0ECFF3622002096
:10B3300040A1004040A5004000A0004040910040D6
:10B3400008900040009500400093004080E200E03B
:10B3500000E100E0BC1B0020B81B0020401885B2B3
:10B360009648152189014018A10045500020AAE700
:10B3700010B5002092490860642092490880084670
:10B380000088914908609148C0888E490988401812
:10B390008C4908800846008888491522920189183E
:10B3A00048608A480089874909884018854908808B
:10B3B000084600888149891888600320FFF776FFD6
:10B3C000FFF77BFE01207D49C8600860002010BDAA
:10B3D00010B57B48C0380068012805D100207849A5
:10B3E000C0390860FFF762FF7548C038406801281F
:10B3F00006D100217248C03841600120FFF756FF96
:10B400006F48C0388068012806D100216C48C038D8
:10B4100081600220FFF74AFF6948C038C0680128F0
:10B4200006D100216648C038C1600320FFF73EFF07
:10B4300010BD0FB410B5142202A9644804F050FDE9
:10B440006348FFF7E4FC6A4651899089FFF727FEBD
:10B45000FFF719FF002010BC08BC04B0184770B5F6
:10B4600005460C46002003E0295C5A4A1154401C52
:10B47000E217520F1219D2108242F5DA56480470C0
:10B48000002056490880FFF7F1FEFFF771FF00200A
:10B4900070BD10B5002819DB514A03231B02D218D6
:10B4A00083089B00D2588307DC0EFF23A3409A43F6
:10B4B0008B071B0E8407E40EA3401A43484B03245A
:10B4C00024021B198408A4001A5118E0454A0307F6
:10B4D0001B0F083B9B089B00D2588307DC0EFF2301
:10B4E000A3409A438B071B0E8407E40EA3401A4324
:10B4F0003C4B0407240F083CA408A4001A5110BDBB
:10B500001CB504460020009003460122114601901C
:10B510002046FFF7F3FC1CBD7CB505460C46002019
:10B52000009023460246014601902846FFF7E6FCBC
:10B530007CBD70B50021294B1888C30F1B185B1008
:10B54000254C2478A34203DB0020244B188070BDD7
:10B55000224B1888C30F1B18DB05190E1F4B1888C8
:10B56000C30F1B185B105B00C31ADAB21B480088BC
:10B57000401C1A4B1880CC17640F6418E410154D4A
:10B580002C5D0846CD176D0F2D18ED10ED004E1BEC
:10B59000802535412C40002C07D0002A02D10B48D1
:10B5A000C089D4E70948008AD1E7002A02D10748B8
:10B5B0004089CCE705488089C9E700000090004039
:10B5C00000920040B81B0020409500403622002029
:10B5D000D1B3010008220020B01B0020BA1B0020BC
:10B5E00000E100E01CED00E001464C4881600020D5
:10B5F000704770B5054600204949086047484560D6
:10B60000002400BF00BFC4600120464948601020EC
:10B61000002805DBC206D20E01219140424A11608A
:10B6200000BF0021102000F042F81020002805DBA8
:10B63000C206D20E012191403C4A116000BF012098
:10B640003B490860002070BD3A4839490322520244
:10B650008918C861704737483749086070473548CE
:10B6600033490322520289184860704731483049F3
:10B67000032252028918886070472E482C49032201
:10B6800052028918C860704710B525480068012823
:10B690000CD12A480068002805D0294A5068274A5A
:10B6A0001268516A884700201D49086010BD10B516
:10B6B000002819DB1D4A03231B02D21883089B00B4
:10B6C000D2588307DC0EFF23A3409A438B071B0E3F
:10B6D0008407E40EA3401A43144B032424021B19CD
:10B6E0008408A4001A5118E0164A03071B0F083BF0
:10B6F0009B089B00D2588307DC0EFF23A3409A438C
:10B700008B071B0E8407E40EA3401A430D4B04075E
:10B71000240F083CA408A4001A5110BD00050140E4
:10B72000000101400003014000E200E000E100E010
:10B73000000001403546526E00060140501B0020BB
:10B74000000401401CED00E070B504460D461646AD
:10B75000054A01218320FEF7D3F870BD0248007826
:10B760007047014908707047BD1B002000BF00BF33
:10B7700000BF00BF00BFBFF34F8F00BF00BF00BFBF
:10B7800024482549C86000BF00BF00BFBFF34F8FEA
:10B7900000BF00BF00BF00BF00BFFDE770B504469B
:10B7A0000D461646FDF725F870BDF8B507460D465F
:10B7B00016460024012D00DB0125002401E0601C59
:10B7C000C4B2305D80210840002801D0AC42F6DBD5
:10B7D000AC421DDA305D032810D004DC012807D00C
:10B7E000022813D109E0112809D012280ED10CE04B
:10B7F000324629463846FFF7B9FF08E007E03246EF
:10B8000029463846FFF7CAFF01E000E000BF00BF4D
:10B81000F8BD00000400FA0500ED00E03B4A0168B5
:10B8200011614168D16081689160C1685162017C99
:10B83000C907C90F01610222816911408161042297
:10B8400041691140416142698169114302691143B3
:10B850002E4A4032516101212C4A11607047F8B5DF
:10B8600005460E4617460024002D01D0002E00D1BB
:10B87000F8BD002F00D1FBE7285D00F037F8641C0D
:10B8800009E0285D0090009800F030F800F031F8F1
:10B89000611E7054641CBC42F3D300F02AF8611E90
:10B8A000705400BFE4E700B591B008200A90092069
:10B8B0000B900A200C90012000070D9000201090A2
:10B8C0000F900E900AA8FFF7A9FF11A30FCB0993C1
:10B8D00006AB07C3102201A906A8FFF7C0FF01AA03
:10B8E00010215520FEF70CF811B000BD0749C861C2
:10B8F000704700BF0A4989680029FBD00021084A27
:10B90000916002498969C8B2704700000035004063
:10B910007869616F6A696E676C696E6766656E00EB
:10B9200000310040002001210C4A51600C4A116096
:10B9300000210C4A116001210B4A116000BF094926
:10B9400009680029FBD005498968C8B20121064A67
:10B9500051600021014A51607047000000D500404D
:10B9600000D2004000D1004000D000407FB5694BBC
:10B970000FCB6C460FC400231A466946664802F096
:10B9800015FC044600BF2546002D04D000BF284604
:10B9900004F071F800BF00BF5F4802F0B1FC7FBD4A
:10B9A00010B5FFF7E3FF10BDF8B504460D46164687
:10B9B0001F46002F09D0012033462A462146009019
:10B9C000554802F0BDFE40B2F8BD002033462A467D
:10B9D00021460090504802F0B3FE40B2F4E770B543
:10B9E00004460D46164633462A4621464A4802F08A
:10B9F000C1FE40B270BDFFB581B0054617460020BC
:10BA000000903A4629464448049B02F099FE0446B9
:10BA100000BF2646002E04D000BF304604F02BF8AD
:10BA200000BF00BF002C02D1002005B0F0BD0020F7
:10BA3000C043FAE7F7B582B00D4616466846057171
:10BA400046710020022301AA00903348029902F0B7
:10BA500077FE044600BF2746002F04D000BF3846BB
:10BA600004F009F800BF00BF002C02D1002005B08F
:10BA7000F0BD0020C043FAE77FB582B0044615460A
:10BA80001E46002002E000212954401CB042FADB8F
:10BA90000120034603AA214600901F4802F050FEF1
:10BAA000002809D133462A4621461B4802F062FE8F
:10BAB000002801D106B070BD0020C043FAE7FEB5F2
:10BAC00005460E4601960120034601AA294600902C
:10BAD000114802F035FE044600BF2746002F04D06F
:10BAE00000BF384603F0C7FF00BF00BF012301AA13
:10BAF0002946094802F03EFE044600BF2746002FB3
:10BB000004D000BF384603F0B6FF00BF00BF684650
:10BB10000079FEBDA8030200C01B0020F7B584B069
:10BB200004460F4606980678B01C1F2803DC607890
:10BB3000801C1F2802DD0C2007B0F0BD1F20801BD9
:10BB4000801E85B20295B11C781802A97DDF039092
:10BB50000398002801D00398EEE72078022808D146
:10BB600068460089A84204DC0920019068460589DE
:10BB70000BE0082001906078002804D06078A8428B
:10BB800001DC657801E068460589681CC2B2304670
:10BB9000711CCEB23A543046721CD6B20199395457
:10BBA00006980178A81C0818C1B2069801700020F8
:10BBB000C2E7F8B505460C462078001D1F2801DDB8
:10BBC0000C20F8BD684679DF0646002E01D03046CD
:10BBD000F7E703212278501C2070A95419212278FC
:10BBE000501C2070A954207841196846008800F044
:10BBF0005EFA2178401820700020E2E730B5034655
:10BC00001078C01C1F2801DD0C2030BD02241578DF
:10BC1000681C10704C550A241578681C10704C551F
:10BC20001578681C10704B550020EEE7FFB587B003
:10BC300006461D46109C002006902078059000279F
:10BC400047E0B900706841180A886846028149884F
:10BC50004181002203A902A865DF0490049800280E
:10BC600002D004980BB0F0BD6846017B0998814270
:10BC70002ED10698002801D0002000E0022001907B
:10BC800020786946097B4118019808181F2801DDB2
:10BC90000C20E7E70698002809D12078401C207086
:10BCA0002278511C08982170A85401200690207811
:10BCB000421903A902A865DF04900498002801D066
:10BCC0000498CFE720786946097B4018207000BFB0
:10BCD0007F1C3088B842B4DC0698002806D0217852
:10BCE0000598401C081AC1B2059829540020B9E7EC
:10BCF000FFB581B0074615460A9E009602223846D7
:10BD0000049B0299FFF792FF0446002C02D02046C4
:10BD100005B0F0BD0096102229463846049BFFF777
:10BD200085FF0446002C01D02046F1E70020EFE714
:10BD300001460888062808DB08881922D2019042AB
:10BD400005DD0888DE4A904201D007207047488808
:10BD5000062808DB48881922D201904205DD488870
:10BD6000D74A904201D00720F0E70888D44A904291
:10BD700008D04888904205D008884A88904201DD62
:10BD80000720E3E70020E1E7F8B506460D46144634
:10BD90002078801D1F2801D90C20F8BD3046FFF700
:10BDA000C7FF0746002F01D03846F6E70521227865
:10BDB000501C2070A95412212278501C2070A954C4
:10BDC00022785119308800F072F9217840182070DB
:10BDD00022785119708800F06AF921784018207093
:10BDE0000020DAE7F8B505460E4614462879801C8F
:10BDF000C7B22078801CC0191F2801DD0C20F8BDB7
:10BE0000781CC1B22278501C2070B154FF212278D6
:10BE1000501C2070B15422789119288800F047F9FD
:10BE2000217840182070A88800280EDDA868002816
:10BE300001D10720E3E7AA8823789819A96804F0BC
:10BE40004FF820782979401820700020D7E7FEB5F8
:10BE500007460E461446B86A002801D10720FEBDE9
:10BE60000020019032E0B96A0C22019850430D186D
:10BE70002879801CC0B200900098401CC1B2227882
:10BE8000501C2070B15416212278501C2070B154DF
:10BE900022789119288800F00AF92178401820703A
:10BEA000A88800280EDDA868002801D10720D6E761
:10BEB000AA8823789819A96804F012F820782979BB
:10BEC000401820700198401CC0B201902C20C15D28
:10BED00001988142C7DC0020C1E7F8B504460F464F
:10BEE00015460026002028702078002809D02A4610
:10BEF00039462046FFF712FE0646002E01D0304696
:10BF0000F8BDA078002808D029463846FFF751FE32
:10BF10000646002E01D03046F2E7E07800280ED029
:10BF200002212A78501C2870B95401212A78501C0B
:10BF30002870B954E1782A78501C2870B954606888
:10BF400000280BD00020616808562A463946FFF7C2
:10BF500055FE0646002E01D03046D1E72089002844
:10BF60000CDD3B4606220221204608300095FFF7F3
:10BF7000BFFE0646002E01D03046C1E7208A0028C9
:10BF80000CDD3B4607220321204610300095FFF7C9
:10BF9000AFFE0646002E01D03046B1E7208B0028C8
:10BFA0000CDD3B4615221421204618300095FFF782
:10BFB0009FFE0646002E01D03046A1E7206A0028E9
:10BFC00009D02A463946206AFFF7DEFE0646002ED3
:10BFD00001D0304694E7606A002809D02A463946E5
:10BFE000606AFFF7FFFE0646002E01D0304687E765
:10BFF0002C20005D002809DD2A4639462046FFF73F
:10C0000026FF0646002E01D0304679E7304677E716
:10C010000146C87804221040002801D1072070474B
:10C020000020FCE70146C878002801D007207047AF
:10C030000020FCE7F3B593B00D4600211291119159
:10C040001398002814D01398FFF7E2FF0446002C41
:10C0500002D0204615B0F0BD12AA09A91398FFF727
:10C060003CFF0446002C01D02046F3E709AE00E077
:10C070000026002D13D02846FFF7D4FF0446002CDD
:10C0800001D02046E6E711AA01A92846FFF725FFBF
:10C090000446002C01D02046DCE701AF00E0002779
:10C0A00010A803793A46017A304672DFD2E7024699
:10C0B0000A70FF20000210400012487002207047F2
:10C0C000FFFF0000F0B5059C55000D439E00354371
:10C0D00026023543069E36043543052636070727D4
:10C0E0003F02F6198700F551F0BD0020F8490870AD
:10C0F0000120F849C86048600020F749086070478F
:10C100001CB50120F349C860F14908700320694655
:10C1100008706846F149096888471CBD08B5EC48B5
:10C120000078022802D00120EA4988606946EC487C
:10C1300003F031FD002802D0FFF7E2FF08BD8020A8
:10C14000E849886068460078E349C8610220E04910
:10C1500008708020E349486000BFEFE710B5E04871
:10C16000C068DF498968401A02D0FFF7D7FF01E0B5
:10C17000FFF7C6FF10BD10B5D5480078012802D0E2
:10C18000022807D102E0FFF7B0FF04E00320D04906
:10C19000087000E000BF00BF10BD10B5CC480078AB
:10C1A000002802D0032817D112E00420CA490860F1
:10C1B0000120C8490860CA48C068C9498968401A4E
:10C1C00002D0FFF7ABFF02E00120C149087004E094
:10C1D0000220BF49087000E000BF00BF10BD10B5CD
:10C1E000BB480078012807D0022804D0032806D1D4
:10C1F000FFF77BFF04E000BFFFF7B0FF00E000BFE8
:10C2000000BF10BD10B5B2480078012801D1FFF77A
:10C2100085FF10BD10B5FFF768FF10BD10B50446CF
:10C22000230004F017F80504070D0A101300FFF7A8
:10C23000A2FF0CE0FFF7B1FF09E0FFF7D0FF06E037
:10C24000FFF7E0FF03E0FFF7E5FF00E000BF00BFFE
:10C2500010BD1CB5A4488068002830D00020A24939
:10C260008860A248C068A1498968401A9F498988A6
:10C27000884220D298488069C1B29C4803F07AFC79
:10C280000446002C08D001206946087001946846D5
:10C2900092490968884711E09448C06893498968C1
:10C2A000401A01280AD100206946087068468B4967
:10C2B0000968884702E001208D49087000BF8A485C
:10C2C000C069002805D000208749C8610320FFF716
:10C2D000A5FF8548406A00280FD0002082494862A7
:10C2E0007D48803804680460022069460870019423
:10C2F00068467A490968884700BF1CBD0420764912
:10C300000860002078498860C86173484030C06A7E
:10C310004008400070494031C8620020C0436E4967
:10C320008860086101206B49886008607047FFB52C
:10C3300083B004460D46002065490870674905989A
:10C340000860002D02D1072007B0F0BDA88882B296
:10C350006648296803F0F9FB0646002E01D03046F6
:10C36000F2E7A88982B25E48A96803F0EEFB0646B0
:10C37000002E01D03046E7E76778002000900346A2
:10C380000122114601903846FFF79CFE00BF277836
:10C390000020029000900190024601463846029B20
:10C3A000FFF790FE00BF60784B49C8602078486175
:10C3B000A06848626079002804D00E2046494031C8
:10C3C000C86203E0002044494031C862FFF796FF8D
:10C3D00001203F490870801E42498860A1208000EA
:10C3E00048600220002805DBC206D20E01219140E0
:10C3F000404A116000BF0220069900F088F8022030
:10C4000000F07CF800209FE770B504460220002869
:10C4100015DBC206D20E01219140374A116000BFE0
:10C4200000BF00BFBFF34F8F00BF00BF00BF00BF02
:10C4300000BF00BFBFF36F8F00BF00BF00BF00BFD2
:10C4400021462A4803F0A7FB054629480078002822
:10C4500008D021488069C1B2244803F08BFB00203A
:10C4600023490870022000F049F8284670BD70B5D5
:10C47000044621461A4803F07DFB05460220FFF7DB
:10C48000CDFE284670BD10B5184803F094FB044655
:10C49000002C01D0204610BD114803F08CFB04464F
:10C4A000002C01D02046F6E70020F4E701460848BA
:10C4B0000078002801D0012000E000200870002052
:10C4C000704710B504460420FFF7A8FE002010BDF9
:10C4D000CC1B00200020004000250040C81B00208D
:10C4E0005C22002000230040002100404C2200205C
:10C4F000CD1B002080E200E080E100E0002805DBA9
:10C50000C206D20E012191401C4A1160704710B53D
:10C51000002819DB194A03231B02D21883089B0049
:10C52000D2588307DC0EFF23A3409A438B071B0ED0
:10C530008407E40EA3401A43104B032424021B1962
:10C540008408A4001A5118E00D4A03071B0F083B8A
:10C550009B089B00D2588307DC0EFF23A3409A431D
:10C560008B071B0E8407E40EA3401A43044B0407F9
:10C57000240F083CA408A4001A5110BD00E100E0FB
:10C580001CED00E010B5044601210C206043F74A81
:10C5900080188172891E0C20604380180181FF2160
:10C5A0000C2060438018C1720C2161438818072158
:10C5B00003F0FCFC10BD10B504461C216143EC4A9D
:10C5C000891808461130062103F0F0FC1C21614354
:10C5D000E74A8818102103F0E9FCFF211C20604382
:10C5E000E34A801801741C20604380188176002182
:10C5F000C9431C20604380180183204601F003FBDF
:10C6000010BD70B503460C460820002115E00C252E
:10C610004D43D64EAD19AD7A2540002D0CD0D54DE9
:10C62000AB4205D00C254D43AD192D899D4202D159
:10C630001160002003E00520491C0029E7D000BF5D
:10C6400070BD7CB50546A9B26A46CB4802F0FBFE38
:10C650000446002C09D15421684603F0AAF8044688
:10C66000002C02D12846FFF7A6FF20467CBDF8B576
:10C6700005460E4617460520009000241BE0002DBD
:10C6800006D11C206043BA494018008BB8420DD037
:10C69000002D0FD01C216143B54A8918084610307F
:10C6A0000722294603F0CCFB002803D13460002088
:10C6B000009002E0641C072CE1D300BF0098F8BD95
:10C6C00010B50446002010BDFEB504460E46A17804
:10C6D0006A46A94802F0B7FE0546002D49D16078A8
:10C6E0000C214843A1494018807A40210840402845
:10C6F00001D0022E01D1A14F04E0012E01D1A04FA3
:10C7000000E0A04FA0781C225043994A81180023D2
:10C710001C226846B8470546002D1AD1022E18D0B3
:10C7200060780C21484391494018807A4021884321
:10C7300061780C2251438D4A8918887260781C22D6
:10C740005043914A81181C231A466846B84705464B
:10C7500000BF022E0DD020780C2148438B49401891
:10C76000807A80008A490A582146684690470546E3
:10C7700000BFFEBDF3B585B00C4603270E20049024
:10C7800061780C225143794A891808893B4604AAEA
:10C790006946AADF0646002E4DD161781822514322
:10C7A0007C4A89180846083069460A8A03F048FB23
:10C7B000002812D160780C2148436C494018807AD7
:10C7C00002210840022836D0617818225143714A6C
:10C7D0008818182103F0ECFB2DE0607818214843FD
:10C7E0006C4940184068002801D0644D00E0644D59
:10C7F00060781821484367490F506946098A607874
:10C8000018225043634A80184160617818225143CE
:10C81000604A89180846083069460A8AFBF7C4FC52
:10C820006078182250435B4A8118382318220598F3
:10C83000A847064600BF002007B0F0BD0246002012
:10C84000704770B505460C46617818225143514A2D
:10C85000881838231822294602F032FF0646002E97
:10C860000FD16078182148434A4940184068401C5D
:10C87000002806D10021607818225043454A8018CC
:10C880004160304670BD024600207047F8B505464D
:10C8900000270020009000266878182148433D4971
:10C8A00040184068002827D068780C2148432F4959
:10C8B0004018807A8021084080281DD168780C219A
:10C8C00048432A494018807A40210840402813D024
:10C8D0006878182148432F49401807460837687878
:10C8E000182148432B494018808880B2009068780E
:10C8F0001821484327490E5869780C2251431B4A96
:10C900008918088933463946009AA9DF04460B2C5A
:10C910000BD1012669780C225143144A89180889E1
:10C9200033463946009AA9DF0446002C00D01A4C41
:10C93000012E18D169780C2251430C4A89180889B4
:10C940000C4A0C21A7DF0446002C0CD0134884426B
:10C9500008D0082C06D0801C844203D0112C01D0B2
:10C96000002400E00C4C2046F8BD000064230020A9
:10C970006C220020FFFF0000D01B0020E9F5010021
:10C98000E1F40100C1C60100302300207023002023
:10C99000B80302004C230020418000000230000058
:10C9A0000146002070470146002901D1FE4870472A
:10C9B000FF20087048708870C8700020F7E7FFB546
:10C9C00091B00F461D4600BFF8480068002801D10D
:10C9D00015B0F0BD00BF1A98542800D9F8E701201F
:10C9E00007900DA8FFF7DFFF064600BF0696069EDC
:10C9F000002E04D000BF069803F03DF800BF00BF32
:10CA0000002108A8017501760C951A980B9000205A
:10CA1000069016E0069881B208AAE54802F013FDD8
:10CA20000646002E0AD1082208A9119803F008FA38
:10CA3000002803D108A90698887505E00698401CCF
:10CA4000069006980728E5D300BF08A8807DFF2838
:10CA500076D0032F0AD11A98542803D1202008A990
:10CA6000087673E0402008A908766FE0D149681A7B
:10CA70001C2103F0E3FA0446072C1DD20AA80F90EC
:10CA80001398002810D108A9887D01218140CA4A45
:10CA900012681140002901D0012100E00021002985
:10CAA00002D10020079051E008A9887D01F0ABF881
:10CAB000202008A9087649E0C049681A1C2103F023
:10CAC000BDFA0446002C1AD10AA80F90202108A80C
:10CAD0000176447500200490B94905911C206043FB
:10CAE000B6494018019008A8807D1C214843B149EF
:10CAF0004018029001A80C9018200B9026E0B14934
:10CB0000681A182103F09AFA0446002C19D1302132
:10CB100008A8017644750121C1750C206043AA491B
:10CB20004018807A0221084002280FD008A9497DC8
:10CB300018225143A34A8818182103F039FA05E056
:10CB400026E000200790402008A9087607980128D1
:10CB50001ED1032F06D108A9087E0321084308A986
:10CB600008760EE0022F06D108A9087E01210843AD
:10CB700008A9087605E008A9087E0221084308A94B
:10CB800008760AA80F900EA90DA8139A01F07EF856
:10CB900000BF1DE77FB50646002E02D1824804B0D3
:10CBA00070BD00240FE000BF00210C2060437F4ACD
:10CBB00011500C206043801841720C206043801893
:10CBC000817200BF641C002CEDD0002403E02046DD
:10CBD000FFF7D8FC641C002CF9D01821794803F029
:10CBE000E7F9002406E02046FFF7E5FCFF2077493F
:10CBF0000855641C072CF6D354216846818107210F
:10CC0000C181734802906A4902A802F095FB05466B
:10CC1000002D30D101206F4908703078002821D1D3
:10CC200000241CE0A1B26A46614802F00CFC0546F3
:10CC3000002D0FD11C2161435E4A881800231C225D
:10CC4000694602F03DFD0546002D07D000206149F0
:10CC5000087006E000205F49087002E0641C072CA1
:10CC6000E0D308E06A469089D289504381B25048A7
:10CC700002F09FFD0546284691E770B505460C4633
:10CC800000BF54480078002802D14748801F70BD7B
:10CC900000BF002D01D14448F9E7002C01D14248E2
:10CCA000F5E72068002801D13F48F0E73F480068D9
:10CCB000002834D13D49206808600522611D3B48A9
:10CCC000001D03F00DF92079384988720846007A72
:10CCD0004008400008720846007A02218843801C00
:10CCE000324908720846007A042188432F490872A5
:10CCF0000846C07940084000401CC8710846C07909
:10CD000002218843801C2949C8710846C079042142
:10CD100088432649C87100202870002601E0224E71
:10CD20000A3E3046B3E770B5044600BF2948007894
:10CD3000002802D11C48801F70BD00BF002C01D10B
:10CD40001948F9E700BF2078012806DA20780C217D
:10CD5000484316490858002802D11348801FEBE7C2
:10CD600000BF00BF6078012807DA60780C214843D3
:10CD700015494018807A012802D10B48801CDBE756
:10CD800000BF094DAD1F60780C2148430E49401883
:10CD9000807A02210840022821D161780C22514377
:10CDA000094A8918088917E00E80000070230020C6
:10CDB000D01B00206C220020D81B00203023002034
:10CDC0007C2300204C23002064230020DD1B002056
:10CDD000BFC90100DC1B0020FB497EDF0546284659
:10CDE000AAE7024600BFF9480078002801D1F848B8
:10CDF000704700BF002A02D1F548801DF8E70029DE
:10CE000002D1F348801DF3E700BF1078012807DA4C
:10CE100010780C235843EC4B1B1F1858002801D1E5
:10CE2000EB48E5E700BF00BF5078012807DA5078EB
:10CE30000C235843E74BC018807A012802D1E448FC
:10CE40000830D5E700BF50780C235843E14BC01899
:10CE5000807A04231840002809D150780C235843C5
:10CE6000DC4BC018807A20231840002802D0012013
:10CE700008700EE050780C235843D64BC018807AC7
:10CE800080231840002802D00220087001E0002012
:10CE900008700020ACE7F8B5044600BFCB48007826
:10CEA000002801D1CA48F8BD00BF002C02D1C848F3
:10CEB000801DF8E7002902D1C548801DF3E7086806
:10CEC000002802D1C248801DEDE78868002802D101
:10CED000BF48801DE7E700BF2078012807DA2078E7
:10CEE0000C256843B84D2D1F2858002801D1B8489B
:10CEF000D9E700BF002300220020009000BF47E0D8
:10CF00000025009500BF12E00C266E43B14FF619C4
:10CF1000F67A86420AD10C266E43F619B67A0227B3
:10CF20003E40022E02D10126009602E06D1C002D2B
:10CF3000EAD000BF009D002D29D10D7B954211D96B
:10CF40001C254543A44EAD19AD7EED07ED0F002D18
:10CF500008D11C254543AD1997008E68F5519F4EA9
:10CF6000B054521C0D799D4211D91C2545439A4E4F
:10CF7000AD19AD7E02263540002D08D11C25454354
:10CF8000954EAD1910359F000E68F5515B1C401C85
:10CF90000728B5D30B710A73002084E702468C483A
:10CFA0008830704770B5044600BF88480078002874
:10CFB00001D1874870BD00BF002C02D18448801D7C
:10CFC000F8E700BF2078012807DA20780C214843D1
:10CFD0007D49091F0858002801D17D48EAE700BFB4
:10CFE00000BFA078072807DAA0781C2148437A49B7
:10CFF0004018807EFF2802D175480830DAE700BF6C
:10D00000A078FFF71EFB05462846D3E770B5044617
:10D0100000BF6E480078002801D16D4870BD00BF88
:10D02000002C02D16A48801DF8E700BF2078012853
:10D0300007DA20780C2148436349091F0858002863
:10D0400001D16348EAE700BF002600250BE01C2061
:10D05000684361494018807EFF2803D02846FFF7C7
:10D06000F0FA06466D1C072DF1D33046D6E7FEB523
:10D0700004460D4600BF55480078002801D15448A9
:10D08000FEBD00BF002C02D15148801DF8E7002DE5
:10D0900002D14F48801DF3E700BF2078012807DA4E
:10D0A00020780C2148434849091F0858002801D11D
:10D0B0004748E5E700BF00BF6078012807DA6078DD
:10D0C0000C21484343494018807A012802D1404846
:10D0D0000830D5E700BF00BFA078072807DAA0789E
:10D0E0001C2148433C494018807EFF2802D1384823
:10D0F0000830C5E700BFE868002813D0A8680028FA
:10D1000010D0A8680E280DD2287801280AD163789B
:10D1100018277B43324FDB1918460830AA68E968A4
:10D1200002F0DEFEA1786A462E4802F08CF906462F
:10D13000287880002C490A582146684690470646C0
:10D1400030469DE77CB504460D4600BF1F48007879
:10D15000002801D11E487CBD00BF002C02D11C4814
:10D16000801DF8E7002D02D11948801DF3E700BFAC
:10D170002078012807DA20780C2148431249091F3A
:10D180000858002801D11248E5E700BF00BFA07889
:10D19000072807DAA0781C2148430F494018807EF1
:10D1A000FF2802D10A480830D5E700BF60780C217B
:10D1B000484308494018807A02210840022815D0C7
:10D1C00003488930C7E7000074230020DC1B0020DF
:10D1D00008800000642300206C220020DD1B00205A
:10D1E0004C230020D01B0020B8030200E868002870
:10D1F00013D1A8680E2810D2287801280DD16078A4
:10D2000018214843FE4940180830E860607818212A
:10D210004843FB4940184168A960A1786A46F9482B
:10D2200002F011F9064628788000F7490A5821468D
:10D2300068469047064630468DE7014600BFF348F2
:10D240000078002801D1F248704700BF002902D1C0
:10D25000EF48801DF8E700BF0878012806DA087853
:10D260000C225043EB4A1058002801D1E848EBE764
:10D2700000BF00BF8878072807DA88781C2250434F
:10D28000E54A8018807EFF2802D1E1480830DBE7BC
:10D2900000BFDF488830D7E70246DD488930704755
:10D2A0000246DB48893070470146D94889307047CB
:10D2B000024600BFD5480078002801D1D448704705
:10D2C00000BF002902D1D248801DF8E7002A02D110
:10D2D000CF48801DF3E700BF1078012806DA1078E8
:10D2E0000C235843CB4B1858002801D1C848E6E717
:10D2F00000BF107808700020E1E770B504460D46C5
:10D3000000BFC2480078002801D1C14870BD00BFED
:10D31000002C02D1BE48801DF8E7002D02D1BC4888
:10D32000801DF3E700BF2078012806DA20780C2161
:10D330004843B8490858002801D1B548E6E700BF7E
:10D3400000BFA078072807DAA0781C214843B2491B
:10D350004018807EFF2802D1AD480830D6E700BFD4
:10D360006078FF281CD12878022819D0A1781C22C7
:10D370005143A94A8918084610300722294602F06D
:10D38000AFFDA07801218140A44A12681143A34A4D
:10D39000116000BF02212046FFF796F9002601E048
:10D3A0009B4E761E3046B1E770B504460E4600BF70
:10D3B00096480078002801D1954870BD00BF002C28
:10D3C00002D19348801DF8E7002E02D19048801DBD
:10D3D000F3E700BF2078012806DA20780C214843C3
:10D3E0008C490858002801D18948E6E700BF884DDC
:10D3F000ED1EA078FF2817D16078FF282AD060782A
:10D400000C21484386494018807A022108400228AE
:10D4100020D160780C225043814A8118072230467F
:10D4200002F05EFD002515E0A0781C2148437A49F2
:10D430004018807E0221084000280BD1A0781C22D1
:10D440005043754A8018014610310722304602F0D9
:10D4500047FD00252846B0E770B58AB005460C4662
:10D4600000BF6A480078002802D169480AB070BD40
:10D4700000BF002D02D16648801DF7E7002C02D1C5
:10D480006348801DF2E700BF2878012806DA287873
:10D490000C2148435F490858002801D15C48E5E762
:10D4A00000BF00BFA878072807DAA8781C214843E6
:10D4B00059494018807EFF2802D155480830D5E7E9
:10D4C00000BF00BF0020E060A8781C2148435249FB
:10D4D0004118216100216161524860600020A06014
:10D4E00003A82060A97801AA464801F0ACFF0646CF
:10D4F000002E17D11C231A4601A903A802F0E0F858
:10D500000646002E0ED1E060A8781C21484342490F
:10D510004118216100216161424860600020A060E3
:10D5200003A820603046A1E77CB50446A1786A468E
:10D53000344801F088FF0546002D13D161781C2284
:10D540005143394A88181C231A46694602F0B8F834
:10D550003048807A80002C490A5821466846904716
:10D56000054600BF7CBDF0B58FB00446FF200D908E
:10D5700000260020079000BF24480078002801D131
:10D580000FB0F0BD00BF00BF22480068002800D1E6
:10D59000F6E700BF0CA8FFF706FA054600BF2F46C6
:10D5A000002F04D000BF384602F065FA00BF00BF6C
:10D5B000002008900025201D0A902A2168468185B8
:10D5C000FF2108A881740021017400200E9020889A
:10D5D000102813D0A0880EAA0221FFF712F80546E2
:10D5E000002D0BD10C210E9848430D494018C17AEB
:10D5F00008A881740E98C1B208A84174208815E06B
:10D600004C230020D01B0020C8030200DC1B00209C
:10D6100008800000702300206C220020D81B00200E
:10D62000642300207C2300203023002017287BD097
:10D6300008DC10280DD011287CD0132876D01428AF
:10D6400075D1B5E0182873D01C2872D05228F7D1B4
:10D650007EE20EAF3A460121FE48FEF7D2FF00906F
:10D660000098002807D102210C2238685043FA4A5A
:10D670008018817201E00420009000980546002D7A
:10D6800051D10126112108A801710E98C1B208A834
:10D690004174A1880C220E985043EF4A80180181F2
:10D6A00002210C220E985043EB4A801881720C2202
:10D6B0000E995143E84A88180722A11D02F010FC78
:10D6C000207D304000280AD0207D4008E349085CD6
:10D6D000FF280AD0207D4008085C0D9005E0DD4A57
:10D6E0000DA9A01DFEF7C3FF0546002D1BD10D9807
:10D6F000C1B20C220E985043D74A8018C1720C2137
:10D700000E98484311464018807A082108430C229D
:10D710000E995143D04A8918887208A90D988874C7
:10D720000CA8FFF701FF22E2F9E003E085E01DE22B
:10D73000ABE116E20C210E984843C7494018807AA5
:10D74000022188430C220E995143C34A89188872DA
:10D750000C210E98484311464018807A0821084051
:10D7600008280ED10C210E98484311464018807AA3
:10D770008021084080280FD100210CA8FEF7A4FFCB
:10D780000AE008A8807CFF2806D008A9887CFEF75C
:10D7900012FFFF2008A9887410210C220E98504314
:10D7A000AD4A801881720126122008A90871DEE1B5
:10D7B0000C210E984843A8494018C07AFF2823D16D
:10D7C000E2890DA90020FEF752FF0546002D1BD16E
:10D7D0000D98C1B20C220E9850439F4A8018C17216
:10D7E0000C210E98484311464018807A08210843BE
:10D7F0000C220E995143984A8918887208A90D98ED
:10D8000088740CA8FFF790FE0C210E9848439249AB
:10D810004018C07AFF2805D01C210E984843904933
:10D82000401807901C230E9959438E4BCA18A088A4
:10D830000023079982DF054699E1132008A90871A2
:10D840000C210E98484384494018807A04210843EB
:10D850000C220E995143804A8918887201260C21A6
:10D860000E98484311464018C07AFF2819D10C225F
:10D870000E9850430A4681180DA800F0CCF90546D1
:10D88000002D0BD108A90D9888740D98C1B20C22F7
:10D890000E985043704A8018C1721DE00895012609
:10D8A0001AE0162008A9087118220E9951436E4AF1
:10D8B0008918084608300E2102F07AFB0C210E98D8
:10D8C000484365494018807A402108430C220E994C
:10D8D0005143614A89188872002004900C210E98E7
:10D8E00048435D494018C07A1C2148435D494118AE
:10D8F0000591002106911C210E9848435849401873
:10D900000190002002900390A08801AB574A0021AB
:10D910007FDF0546002D01D00895002627E15348FA
:10D92000001F407A400840005049091F48720C21EE
:10D930000E98484348494018807A042188430C22B5
:10D940000E995143444A89188872142008A9087115
:10D950000126A07900280AD00C220E9951433E4A94
:10D960008918C87AFEF76DFEA07908908CE0E079FE
:10D970004007C00F00287BD008A8807CFF2877D004
:10D980000C210E98484334494018807A08210843F6
:10D990000C220E995143304A89188872E07A800728
:10D9A000C00F00280FD008A8807C1C2148432D49B7
:10D9B0004018807E4108490008A8807C1C22504302
:10D9C000284A801881760C210E9848432249401835
:10D9D000C07AFF2858D00C210E9848431E49085C95
:10D9E000022820D00C230E9A5A430B46D11808AABD
:10D9F000927C1C235A431B4BD2181046103007222E
:10DA000002F06EFA08A8807C1C2148431549401892
:10DA1000807E0221884308A9897C1C225143114A37
:10DA2000891888762CE01C210E9848430C49401830
:10DA3000418A08A8807C1C2250430A4A801801832E
:10DA400008A8807C1C21484311464018807E41086C
:10DA500049000EE0FFFF000064230020DD1B0020D2
:10DA6000302300206C2200204C230020742300204F
:10DA70000AE008A8807C1C225043A44A80188176C2
:10DA800001210CA8FEF720FE71E0A0790009012811
:10DA90003DD1A0790007000F012838D10C210E9844
:10DAA00048439B494018807A0821084008282ED115
:10DAB00018220E995143974A891808180E2102F02E
:10DAC00077FA162008A908710C210E98484390494E
:10DAD0004018807A202108430C220E9951438C4A29
